{
  "_format": "hh-sol-artifact-1",
  "contractName": "GetLoginLogic",
  "sourceName": "contracts/GetLoginLogic.sol",
  "abi": [
    {
      "inputs": [
        {
          "internalType": "address",
          "name": "_getLoginStorage",
          "type": "address"
        }
      ],
      "stateMutability": "nonpayable",
      "type": "constructor"
    },
    {
      "inputs": [
        {
          "internalType": "uint64",
          "name": "appId",
          "type": "uint64"
        },
        {
          "internalType": "address",
          "name": "wallet",
          "type": "address"
        }
      ],
      "name": "addApplicationContract",
      "outputs": [],
      "stateMutability": "nonpayable",
      "type": "function"
    },
    {
      "inputs": [
        {
          "internalType": "uint64",
          "name": "appId",
          "type": "uint64"
        },
        {
          "internalType": "string",
          "name": "url",
          "type": "string"
        }
      ],
      "name": "addApplicationUrl",
      "outputs": [],
      "stateMutability": "nonpayable",
      "type": "function"
    },
    {
      "inputs": [
        {
          "internalType": "address payable",
          "name": "walletAddress",
          "type": "address"
        },
        {
          "internalType": "string",
          "name": "ciphertext",
          "type": "string"
        },
        {
          "internalType": "string",
          "name": "iv",
          "type": "string"
        },
        {
          "internalType": "string",
          "name": "salt",
          "type": "string"
        },
        {
          "internalType": "string",
          "name": "mac",
          "type": "string"
        },
        {
          "components": [
            {
              "internalType": "uint64",
              "name": "appId",
              "type": "uint64"
            },
            {
              "internalType": "string",
              "name": "iv",
              "type": "string"
            },
            {
              "internalType": "string",
              "name": "ephemPublicKey",
              "type": "string"
            },
            {
              "internalType": "string",
              "name": "ciphertext",
              "type": "string"
            },
            {
              "internalType": "string",
              "name": "mac",
              "type": "string"
            }
          ],
          "internalType": "struct GetLoginLogic.SessionData[]",
          "name": "sessions",
          "type": "tuple[]"
        }
      ],
      "name": "changePassword",
      "outputs": [],
      "stateMutability": "payable",
      "type": "function"
    },
    {
      "inputs": [
        {
          "internalType": "uint64",
          "name": "appId",
          "type": "uint64"
        },
        {
          "internalType": "address payable",
          "name": "wallet",
          "type": "address"
        },
        {
          "internalType": "string",
          "name": "iv",
          "type": "string"
        },
        {
          "internalType": "string",
          "name": "ephemPublicKey",
          "type": "string"
        },
        {
          "internalType": "string",
          "name": "ciphertext",
          "type": "string"
        },
        {
          "internalType": "string",
          "name": "mac",
          "type": "string"
        }
      ],
      "name": "createAppSession",
      "outputs": [],
      "stateMutability": "payable",
      "type": "function"
    },
    {
      "inputs": [
        {
          "internalType": "string",
          "name": "title",
          "type": "string"
        },
        {
          "internalType": "string",
          "name": "description",
          "type": "string"
        },
        {
          "internalType": "string[]",
          "name": "allowedUrls",
          "type": "string[]"
        },
        {
          "internalType": "address[]",
          "name": "allowedContracts",
          "type": "address[]"
        }
      ],
      "name": "createApplication",
      "outputs": [
        {
          "internalType": "uint64",
          "name": "",
          "type": "uint64"
        }
      ],
      "stateMutability": "nonpayable",
      "type": "function"
    },
    {
      "inputs": [
        {
          "internalType": "address payable[]",
          "name": "invites",
          "type": "address[]"
        }
      ],
      "name": "createInvite",
      "outputs": [],
      "stateMutability": "payable",
      "type": "function"
    },
    {
      "inputs": [
        {
          "internalType": "bytes32",
          "name": "usernameHash",
          "type": "bytes32"
        }
      ],
      "name": "createUser",
      "outputs": [],
      "stateMutability": "payable",
      "type": "function"
    },
    {
      "inputs": [
        {
          "internalType": "bytes32",
          "name": "usernameHash",
          "type": "bytes32"
        },
        {
          "internalType": "address payable",
          "name": "walletAddress",
          "type": "address"
        },
        {
          "internalType": "string",
          "name": "ciphertext",
          "type": "string"
        },
        {
          "internalType": "string",
          "name": "iv",
          "type": "string"
        },
        {
          "internalType": "string",
          "name": "salt",
          "type": "string"
        },
        {
          "internalType": "string",
          "name": "mac",
          "type": "string"
        },
        {
          "internalType": "bool",
          "name": "allowReset",
          "type": "bool"
        }
      ],
      "name": "createUserFromInvite",
      "outputs": [],
      "stateMutability": "payable",
      "type": "function"
    },
    {
      "inputs": [
        {
          "internalType": "uint64",
          "name": "appId",
          "type": "uint64"
        }
      ],
      "name": "deleteApplication",
      "outputs": [],
      "stateMutability": "nonpayable",
      "type": "function"
    },
    {
      "inputs": [
        {
          "internalType": "uint64",
          "name": "appId",
          "type": "uint64"
        },
        {
          "internalType": "uint256",
          "name": "index",
          "type": "uint256"
        }
      ],
      "name": "deleteApplicationContract",
      "outputs": [],
      "stateMutability": "nonpayable",
      "type": "function"
    },
    {
      "inputs": [
        {
          "internalType": "uint64",
          "name": "appId",
          "type": "uint64"
        },
        {
          "internalType": "uint256",
          "name": "index",
          "type": "uint256"
        }
      ],
      "name": "deleteApplicationUrl",
      "outputs": [],
      "stateMutability": "nonpayable",
      "type": "function"
    },
    {
      "inputs": [
        {
          "internalType": "uint64",
          "name": "appId",
          "type": "uint64"
        },
        {
          "internalType": "string",
          "name": "title",
          "type": "string"
        },
        {
          "internalType": "string",
          "name": "description",
          "type": "string"
        },
        {
          "internalType": "string[]",
          "name": "allowedUrls",
          "type": "string[]"
        },
        {
          "internalType": "address[]",
          "name": "allowedContracts",
          "type": "address[]"
        }
      ],
      "name": "editApplication",
      "outputs": [],
      "stateMutability": "nonpayable",
      "type": "function"
    },
    {
      "inputs": [
        {
          "internalType": "bytes32",
          "name": "usernameHash",
          "type": "bytes32"
        }
      ],
      "name": "getAllSettings",
      "outputs": [
        {
          "components": [
            {
              "internalType": "string",
              "name": "inviteReset",
              "type": "string"
            }
          ],
          "internalType": "struct GetLoginLogic.SettingsData",
          "name": "",
          "type": "tuple"
        }
      ],
      "stateMutability": "view",
      "type": "function"
    },
    {
      "inputs": [
        {
          "internalType": "uint64",
          "name": "id",
          "type": "uint64"
        }
      ],
      "name": "getApplication",
      "outputs": [
        {
          "components": [
            {
              "internalType": "uint64",
              "name": "id",
              "type": "uint64"
            },
            {
              "internalType": "bytes32",
              "name": "usernameHash",
              "type": "bytes32"
            },
            {
              "internalType": "string",
              "name": "title",
              "type": "string"
            },
            {
              "internalType": "string",
              "name": "description",
              "type": "string"
            },
            {
              "internalType": "string[]",
              "name": "allowedUrls",
              "type": "string[]"
            },
            {
              "internalType": "address[]",
              "name": "allowedContracts",
              "type": "address[]"
            },
            {
              "internalType": "bool",
              "name": "isActive",
              "type": "bool"
            }
          ],
          "internalType": "struct I_GetLoginStorage.Application",
          "name": "",
          "type": "tuple"
        }
      ],
      "stateMutability": "view",
      "type": "function"
    },
    {
      "inputs": [
        {
          "internalType": "address",
          "name": "wallet",
          "type": "address"
        }
      ],
      "name": "getInvite",
      "outputs": [
        {
          "components": [
            {
              "internalType": "address",
              "name": "inviteAddress",
              "type": "address"
            },
            {
              "internalType": "bytes32",
              "name": "creatorUsername",
              "type": "bytes32"
            },
            {
              "internalType": "bytes32",
              "name": "registeredUsername",
              "type": "bytes32"
            },
            {
              "internalType": "bool",
              "name": "isActive",
              "type": "bool"
            }
          ],
          "internalType": "struct I_GetLoginStorage.InviteInfo",
          "name": "",
          "type": "tuple"
        }
      ],
      "stateMutability": "view",
      "type": "function"
    },
    {
      "inputs": [
        {
          "internalType": "bytes32",
          "name": "usernameHash",
          "type": "bytes32"
        }
      ],
      "name": "getInviteReset",
      "outputs": [
        {
          "internalType": "string",
          "name": "",
          "type": "string"
        }
      ],
      "stateMutability": "view",
      "type": "function"
    },
    {
      "inputs": [],
      "name": "getLoginStorage",
      "outputs": [
        {
          "internalType": "contract I_GetLoginStorage",
          "name": "",
          "type": "address"
        }
      ],
      "stateMutability": "view",
      "type": "function"
    },
    {
      "inputs": [
        {
          "internalType": "bytes32",
          "name": "usernameHash",
          "type": "bytes32"
        },
        {
          "internalType": "string",
          "name": "key",
          "type": "string"
        }
      ],
      "name": "getSettings",
      "outputs": [
        {
          "internalType": "string",
          "name": "",
          "type": "string"
        }
      ],
      "stateMutability": "view",
      "type": "function"
    },
    {
      "inputs": [
        {
          "internalType": "address",
          "name": "wallet",
          "type": "address"
        }
      ],
      "name": "getUserByAddress",
      "outputs": [
        {
          "components": [
            {
              "internalType": "bytes32",
              "name": "username",
              "type": "bytes32"
            },
            {
              "internalType": "bool",
              "name": "isActive",
              "type": "bool"
            }
          ],
          "internalType": "struct I_GetLoginStorage.UserInfo",
          "name": "",
          "type": "tuple"
        }
      ],
      "stateMutability": "view",
      "type": "function"
    },
    {
      "inputs": [
        {
          "internalType": "bytes32",
          "name": "usernameHash",
          "type": "bytes32"
        }
      ],
      "name": "getUserInfo",
      "outputs": [
        {
          "components": [
            {
              "internalType": "bytes32",
              "name": "username",
              "type": "bytes32"
            },
            {
              "internalType": "bool",
              "name": "isActive",
              "type": "bool"
            }
          ],
          "internalType": "struct I_GetLoginStorage.UserInfo",
          "name": "",
          "type": "tuple"
        }
      ],
      "stateMutability": "view",
      "type": "function"
    },
    {
      "inputs": [
        {
          "internalType": "bytes32",
          "name": "usernameHash",
          "type": "bytes32"
        }
      ],
      "name": "getUserSessions",
      "outputs": [
        {
          "components": [
            {
              "internalType": "bytes32",
              "name": "username",
              "type": "bytes32"
            },
            {
              "internalType": "address",
              "name": "wallet",
              "type": "address"
            },
            {
              "internalType": "uint8",
              "name": "sessionType",
              "type": "uint8"
            },
            {
              "internalType": "uint64",
              "name": "appId",
              "type": "uint64"
            }
          ],
          "internalType": "struct I_GetLoginStorage.UserSession[]",
          "name": "",
          "type": "tuple[]"
        }
      ],
      "stateMutability": "view",
      "type": "function"
    },
    {
      "inputs": [
        {
          "internalType": "address",
          "name": "wallet",
          "type": "address"
        }
      ],
      "name": "getUsernameByAddress",
      "outputs": [
        {
          "internalType": "bytes32",
          "name": "",
          "type": "bytes32"
        }
      ],
      "stateMutability": "view",
      "type": "function"
    },
    {
      "inputs": [],
      "name": "init",
      "outputs": [],
      "stateMutability": "nonpayable",
      "type": "function"
    },
    {
      "inputs": [
        {
          "internalType": "address",
          "name": "wallet",
          "type": "address"
        }
      ],
      "name": "isActiveInvite",
      "outputs": [
        {
          "internalType": "bool",
          "name": "",
          "type": "bool"
        }
      ],
      "stateMutability": "view",
      "type": "function"
    },
    {
      "inputs": [
        {
          "internalType": "address",
          "name": "wallet",
          "type": "address"
        }
      ],
      "name": "isAddressRegistered",
      "outputs": [
        {
          "internalType": "bool",
          "name": "",
          "type": "bool"
        }
      ],
      "stateMutability": "view",
      "type": "function"
    },
    {
      "inputs": [
        {
          "internalType": "uint64",
          "name": "appId",
          "type": "uint64"
        },
        {
          "internalType": "address",
          "name": "checkAddress",
          "type": "address"
        }
      ],
      "name": "isAppOwner",
      "outputs": [
        {
          "internalType": "bool",
          "name": "",
          "type": "bool"
        }
      ],
      "stateMutability": "view",
      "type": "function"
    },
    {
      "inputs": [
        {
          "internalType": "address",
          "name": "wallet",
          "type": "address"
        }
      ],
      "name": "isInviteAddressUsed",
      "outputs": [
        {
          "internalType": "bool",
          "name": "",
          "type": "bool"
        }
      ],
      "stateMutability": "view",
      "type": "function"
    },
    {
      "inputs": [
        {
          "internalType": "bytes32",
          "name": "usernameHash",
          "type": "bytes32"
        }
      ],
      "name": "isUsernameExists",
      "outputs": [
        {
          "internalType": "bool",
          "name": "",
          "type": "bool"
        }
      ],
      "stateMutability": "view",
      "type": "function"
    },
    {
      "inputs": [],
      "name": "owner",
      "outputs": [
        {
          "internalType": "address",
          "name": "",
          "type": "address"
        }
      ],
      "stateMutability": "view",
      "type": "function"
    },
    {
      "inputs": [
        {
          "internalType": "address payable",
          "name": "walletAddress",
          "type": "address"
        },
        {
          "internalType": "string",
          "name": "ciphertext",
          "type": "string"
        },
        {
          "internalType": "string",
          "name": "iv",
          "type": "string"
        },
        {
          "internalType": "string",
          "name": "salt",
          "type": "string"
        },
        {
          "internalType": "string",
          "name": "mac",
          "type": "string"
        }
      ],
      "name": "resetPassword",
      "outputs": [],
      "stateMutability": "payable",
      "type": "function"
    },
    {
      "inputs": [
        {
          "internalType": "uint64",
          "name": "appId",
          "type": "uint64"
        }
      ],
      "name": "restoreApplication",
      "outputs": [],
      "stateMutability": "nonpayable",
      "type": "function"
    },
    {
      "inputs": [
        {
          "internalType": "string",
          "name": "value",
          "type": "string"
        }
      ],
      "name": "setInviteReset",
      "outputs": [],
      "stateMutability": "nonpayable",
      "type": "function"
    },
    {
      "inputs": [
        {
          "internalType": "address",
          "name": "_address",
          "type": "address"
        }
      ],
      "name": "setOwner",
      "outputs": [],
      "stateMutability": "nonpayable",
      "type": "function"
    },
    {
      "inputs": [
        {
          "internalType": "address",
          "name": "_address",
          "type": "address"
        }
      ],
      "name": "setStorageAddress",
      "outputs": [],
      "stateMutability": "nonpayable",
      "type": "function"
    },
    {
      "inputs": [
        {
          "internalType": "address",
          "name": "wallet",
          "type": "address"
        }
      ],
      "name": "validateAddressAvailable",
      "outputs": [],
      "stateMutability": "view",
      "type": "function"
    },
    {
      "inputs": [
        {
          "internalType": "address",
          "name": "wallet",
          "type": "address"
        }
      ],
      "name": "validateAddressRegistered",
      "outputs": [],
      "stateMutability": "view",
      "type": "function"
    },
    {
      "inputs": [
        {
          "internalType": "uint64",
          "name": "appId",
          "type": "uint64"
        }
      ],
      "name": "validateAppExists",
      "outputs": [],
      "stateMutability": "view",
      "type": "function"
    },
    {
      "inputs": [
        {
          "internalType": "uint64",
          "name": "appId",
          "type": "uint64"
        },
        {
          "internalType": "address",
          "name": "wallet",
          "type": "address"
        }
      ],
      "name": "validateAppOwner",
      "outputs": [],
      "stateMutability": "view",
      "type": "function"
    },
    {
      "inputs": [
        {
          "internalType": "address",
          "name": "wallet",
          "type": "address"
        }
      ],
      "name": "validateInviteActive",
      "outputs": [],
      "stateMutability": "view",
      "type": "function"
    },
    {
      "inputs": [
        {
          "internalType": "address",
          "name": "wallet",
          "type": "address"
        }
      ],
      "name": "validateInviteAvailable",
      "outputs": [],
      "stateMutability": "view",
      "type": "function"
    }
  ],
  "bytecode": "0x60c0604052600c60808190526b1a5b9d9a5d1957dc995cd95d60a21b60a09081526200002f9160029190620000ac565b5060038054600160ff199091161761ff0019166102001790553480156200005557600080fd5b506040516200422438038062004224833981016040819052620000789162000151565b60018054336001600160a01b031991821617909155600080549091166001600160a01b039290921691909117905562000181565b828054600181600116156101000203166002900490600052602060002090601f016020900481019282601f10620000ef57805160ff19168380011785556200011f565b828001600101855582156200011f579182015b828111156200011f57825182559160200191906001019062000102565b506200012d92915062000131565b5090565b6200014e91905b808211156200012d576000815560010162000138565b90565b60006020828403121562000163578081fd5b81516001600160a01b03811681146200017a578182fd5b9392505050565b61409380620001916000396000f3fe6080604052600436106102bb5760003560e01c8063880faf6f1161016e578063c5ee2740116100cb578063ec46474c1161007f578063ef32358d11610064578063ef32358d1461077e578063fd8991cc1461079e578063ff6e9740146107be576102bb565b8063ec46474c14610731578063ed1a998d14610751576102bb565b8063db939c75116100b0578063db939c75146106dc578063df8c18d1146106fc578063e1c7392a1461071c576102bb565b8063c5ee2740146106a9578063cc35c9fc146106bc576102bb565b8063abf7bfd811610122578063adff8b0f11610107578063adff8b0f1461063c578063b3d8b20e1461065c578063b94f28d214610689576102bb565b8063abf7bfd814610609578063ac7a3cc01461061c576102bb565b80638da5cb5b116101535780638da5cb5b146105b4578063a182c736146105c9578063abc040ca146105e9576102bb565b8063880faf6f146105745780638c3ab38114610594576102bb565b806349395fe71161021c57806369c212f6116101d05780637419d934116101b55780637419d934146105125780637b06c09c14610534578063863f99b614610554576102bb565b806369c212f6146104b85780636b51503b146104e5576102bb565b806361c65e2c1161020157806361c65e2c1461045857806364e34e11146104855780636768fcd3146104a5576102bb565b806349395fe71461042557806359b910d614610438576102bb565b80631be7c3bd11610273578063209090931161025857806320909093146103c55780632226e438146103d857806338b6a3a114610405576102bb565b80631be7c3bd146103785780631c964f97146103a5576102bb565b806314332258116102a457806314332258146103185780631618ddab1461033857806316e4f57a1461034b576102bb565b8063117714be146102c057806313af4035146102f6575b600080fd5b3480156102cc57600080fd5b506102e06102db366004612d59565b6107de565b6040516102ed919061396e565b60405180910390f35b34801561030257600080fd5b50610316610311366004612d59565b610875565b005b34801561032457600080fd5b50610316610333366004612d59565b6108d7565b610316610346366004612e30565b610900565b34801561035757600080fd5b5061036b61036636600461308d565b610b85565b6040516102ed9190613ea3565b34801561038457600080fd5b50610398610393366004613225565b610ba9565b6040516102ed9190613ecc565b3480156103b157600080fd5b506103166103c03660046135ca565b610bd8565b6103166103d33660046130a5565b610bf9565b3480156103e457600080fd5b506103f86103f336600461349d565b610ecf565b6040516102ed9190613e82565b34801561041157600080fd5b506102e0610420366004612d59565b610f6a565b610316610433366004612f0c565b6110a1565b34801561044457600080fd5b50610316610453366004612d59565b6112a9565b34801561046457600080fd5b50610478610473366004612d59565b611302565b6040516102ed9190613e95565b34801561049157600080fd5b506102e06104a03660046134d5565b61138a565b6103166104b3366004612d75565b61142c565b3480156104c457600080fd5b506104d86104d3366004612d59565b611695565b6040516102ed9190613ebe565b3480156104f157600080fd5b5061050561050036600461308d565b6117ce565b6040516102ed9190613aca565b34801561051e57600080fd5b50610527611863565b6040516102ed91906138a6565b34801561054057600080fd5b506102e061054f366004612d59565b611872565b34801561056057600080fd5b5061031661056f3660046134d5565b611909565b34801561058057600080fd5b5061031661058f3660046134d5565b611938565b3480156105a057600080fd5b506103166105af36600461349d565b611955565b3480156105c057600080fd5b50610527611973565b3480156105d557600080fd5b506103166105e4366004612d59565b611982565b3480156105f557600080fd5b506103166106043660046136b0565b6119a7565b61031661061736600461308d565b6119c4565b34801561062857600080fd5b50610316610637366004612d59565b6119ce565b34801561064857600080fd5b506104d861065736600461308d565b6119f3565b34801561066857600080fd5b5061067c61067736600461308d565b611a7a565b6040516102ed91906138f4565b34801561069557600080fd5b506103166106a436600461349d565b611b18565b6103166106b736600461350d565b611bc7565b3480156106c857600080fd5b506103166106d7366004613602565b611d09565b3480156106e857600080fd5b506105056106f736600461317a565b611df7565b34801561070857600080fd5b50610316610717366004612d59565b611eca565b34801561072857600080fd5b50610316611ef0565b34801561073d57600080fd5b5061031661074c3660046136b0565b6120f6565b34801561075d57600080fd5b5061077161076c366004612d59565b612113565b6040516102ed9190613979565b34801561078a57600080fd5b506102e061079936600461308d565b612125565b3480156107aa57600080fd5b506103166107b936600461349d565b61213a565b3480156107ca57600080fd5b506103166107d93660046131bf565b61214f565b60006107e86128e4565b600054604051631871978b60e21b81526001600160a01b03909116906361c65e2c906108189086906004016138a6565b60806040518083038186803b15801561083057600080fd5b505afa158015610844573d6000803e3d6000fd5b505050506040513d601f19601f8201168201806040525081019061086891906133d1565b606001519150505b919050565b6001546001600160a01b031633146108a85760405162461bcd60e51b815260040161089f90613b14565b60405180910390fd5b6001805473ffffffffffffffffffffffffffffffffffffffff19166001600160a01b0392909216919091179055565b6108e081611872565b156108fd5760405162461bcd60e51b815260040161089f90613c6b565b50565b61090933611982565b61091286611eca565b600061091d33612113565b6000546040805180820182526001815260208101849052905163c17b528960e01b81529293506001600160a01b039091169163c17b528991610964918b91906004016138d7565b600060405180830381600087803b15801561097e57600080fd5b505af1158015610992573d6000803e3d6000fd5b505060008054604080518082018252928352602083018690525163c17b528960e01b81526001600160a01b03909116935063c17b528992506109d89133916004016138d7565b600060405180830381600087803b1580156109f257600080fd5b505af1158015610a06573d6000803e3d6000fd5b5050600354610a1f9250839150899060ff1660006121f4565b6040516001600160a01b038816903480156108fc02916000818181858888f19350505050158015610a54573d6000803e3d6000fd5b50600054604051631b608ad160e21b81526001600160a01b0390911690636d822b4490610a8f9084908b908b908b908b908b90600401613999565b600060405180830381600087803b158015610aa957600080fd5b505af1158015610abd573d6000803e3d6000fd5b506000925050505b8251811015610b7b57610ad661290b565b838281518110610ae257fe5b602090810291909101810151600054815192820151604080840151606085015160808601519251630bc8e5db60e21b81529597506001600160a01b0390941695632f23976c95610b3c9591948b9490939291600401613f04565b600060405180830381600087803b158015610b5657600080fd5b505af1158015610b6a573d6000803e3d6000fd5b505060019093019250610ac5915050565b5050505050505050565b610b8d612944565b6040518060200160405280610ba1846117ce565b905292915050565b6000610bb433611982565b6000610bbf33612113565b9050610bce8187878787612271565b9695505050505050565b610be182611b18565b610beb8233611909565b610bf582826124a8565b5050565b610c02336119ce565b610c0b86610f6a565b15610c285760405162461bcd60e51b815260040161089f90613b82565b610c306128e4565b600054604051631871978b60e21b81526001600160a01b03909116906361c65e2c90610c609033906004016138a6565b60806040518083038186803b158015610c7857600080fd5b505afa158015610c8c573d6000803e3d6000fd5b505050506040513d601f19601f82011682018060405250810190610cb091906133d1565b9050610cbc8888612529565b60006060820181905260408083018a905290549051630913be4160e01b81526001600160a01b0390911690630913be4190610cfd90339085906004016138ba565b600060405180830381600087803b158015610d1757600080fd5b505af1158015610d2b573d6000803e3d6000fd5b50506040516001600160a01b038a1692503480156108fc029250906000818181858888f19350505050158015610d65573d6000803e3d6000fd5b506002805460408051602060018416156101000260001901909316849004601f8101849004840282018401909252818152610e59938c9391929091830182828015610df15780601f10610dc657610100808354040283529160200191610df1565b820191906000526020600020905b815481529060010190602001808311610dd457829003601f168201915b505050505084610e36576040518060400160405280600581526020017f66616c7365000000000000000000000000000000000000000000000000000000815250610e54565b604051806040016040528060048152602001637472756560e01b8152505b61268e565b600054604051631b608ad160e21b81526001600160a01b0390911690636d822b4490610e93908b908b908b908b908b908b90600401613999565b600060405180830381600087803b158015610ead57600080fd5b505af1158015610ec1573d6000803e3d6000fd5b505050505050505050505050565b610ed7612957565b610ee082611b18565b600054604051630444dc8760e31b81526001600160a01b0390911690632226e43890610f10908590600401613ecc565b60006040518083038186803b158015610f2857600080fd5b505afa158015610f3c573d6000803e3d6000fd5b505050506040513d6000823e601f3d908101601f19168201604052610f6491908101906132cd565b92915050565b6000610f746129a3565b600054604051636e56131f60e11b81526001600160a01b039091169063dcac263e90610fa49086906004016138a6565b604080518083038186803b158015610fbb57600080fd5b505afa158015610fcf573d6000803e3d6000fd5b505050506040513d601f19601f82011682018060405250810190610ff39190613462565b8051909150151560011461100b576000915050610870565b6110136129a3565b6000546020830151604051631945d5e760e21b81526001600160a01b0390921691636517579c9161104691600401613979565b604080518083038186803b15801561105d57600080fd5b505afa158015611071573d6000803e3d6000fd5b505050506040513d601f19601f820116820180604052508101906110959190613429565b60200151949350505050565b6110aa33611982565b60005b81518110156110da576110d28282815181106110c557fe5b60200260200101516108d7565b6001016110ad565b5060006110e633612113565b9050600034158015906110fa575060008351115b1561110d578251348161110957fe5b0490505b60005b83518110156112a35760008460008151811061112857fe5b602090810291909101810151600054604080516080810182526001600160a01b0380851682529481018990527f6d616b313030000000000000000000000000000000000000000000000000000081830152600160608201529051630913be4160e01b8152929450921691630913be41916111a69185916004016138ba565b600060405180830381600087803b1580156111c057600080fd5b505af11580156111d4573d6000803e3d6000fd5b505050506000831115611219576040516001600160a01b0382169084156108fc029085906000818181858888f19350505050158015611217573d6000803e3d6000fd5b505b6000546040517f2ef9adc30000000000000000000000000000000000000000000000000000000081526001600160a01b0390911690632ef9adc3906112649087908590600401613982565b600060405180830381600087803b15801561127e57600080fd5b505af1158015611292573d6000803e3d6000fd5b505060019093019250611110915050565b50505050565b6001546001600160a01b031633146112d35760405162461bcd60e51b815260040161089f90613b14565b6000805473ffffffffffffffffffffffffffffffffffffffff19166001600160a01b0392909216919091179055565b61130a6128e4565b600054604051631871978b60e21b81526001600160a01b03909116906361c65e2c9061133a9085906004016138a6565b60806040518083038186803b15801561135257600080fd5b505afa158015611366573d6000803e3d6000fd5b505050506040513d601f19601f82011682018060405250810190610f6491906133d1565b60008061139683612113565b600054604051630444dc8760e31b815291925082916001600160a01b0390911690632226e438906113cb908890600401613ecc565b60006040518083038186803b1580156113e357600080fd5b505afa1580156113f7573d6000803e3d6000fd5b505050506040513d6000823e601f3d908101601f1916820160405261141f91908101906132cd565b6020015114949350505050565b6114346128e4565b600054604051631871978b60e21b81526001600160a01b03909116906361c65e2c906114649033906004016138a6565b60806040518083038186803b15801561147c57600080fd5b505afa158015611490573d6000803e3d6000fd5b505050506040513d601f19601f820116820180604052508101906114b491906133d1565b6060810151909150156114d95760405162461bcd60e51b815260040161089f90613bf0565b60408101516114fa5760405162461bcd60e51b815260040161089f90613e25565b60405160200161150990613c4d565b6040516020818303038152906040528051906020012061152c82604001516117ce565b60405160200161153c9190613aca565b604051602081830303815290604052805190602001201461156f5760405162461bcd60e51b815260040161089f90613cc8565b60005460408051808201825260018152838201516020820152905163c17b528960e01b81526001600160a01b039092169163c17b5289916115b5918a91906004016138d7565b600060405180830381600087803b1580156115cf57600080fd5b505af11580156115e3573d6000803e3d6000fd5b50506040516001600160a01b03891692503480156108fc029250906000818181858888f1935050505015801561161d573d6000803e3d6000fd5b506000546040808301519051631b608ad160e21b81526001600160a01b0390921691636d822b449161165b918a908a908a908a908a90600401613999565b600060405180830381600087803b15801561167557600080fd5b505af1158015611689573d6000803e3d6000fd5b50505050505050505050565b61169d6129a3565b6116a56129a3565b600054604051636e56131f60e11b81526001600160a01b039091169063dcac263e906116d59086906004016138a6565b604080518083038186803b1580156116ec57600080fd5b505afa158015611700573d6000803e3d6000fd5b505050506040513d601f19601f820116820180604052508101906117249190613462565b80519091506117455760405162461bcd60e51b815260040161089f90613d93565b6000546020820151604051631945d5e760e21b81526001600160a01b0390921691636517579c9161177891600401613979565b604080518083038186803b15801561178f57600080fd5b505afa1580156117a3573d6000803e3d6000fd5b505050506040513d601f19601f820116820180604052508101906117c79190613429565b9392505050565b60028054604080516020601f60001961010060018716150201909416859004938401819004810282018101909252828152606093610f649386938301828280156118595780601f1061182e57610100808354040283529160200191611859565b820191906000526020600020905b81548152906001019060200180831161183c57829003601f168201915b5050505050611df7565b6000546001600160a01b031681565b600061187c6128e4565b600054604051631871978b60e21b81526001600160a01b03909116906361c65e2c906118ac9086906004016138a6565b60806040518083038186803b1580156118c457600080fd5b505afa1580156118d8573d6000803e3d6000fd5b505050506040513d601f19601f820116820180604052508101906118fc91906133d1565b6020015115159392505050565b61191281611982565b61191c828261138a565b610bf55760405162461bcd60e51b815260040161089f90613dc8565b61194182611b18565b61194b8233611909565b610bf58282612705565b61195e81611b18565b6119688133611909565b6108fd816000612750565b6001546001600160a01b031681565b61198b81610f6a565b6108fd5760405162461bcd60e51b815260040161089f90613d5c565b6119b082611b18565b6119ba8233611909565b610bf5828261284e565b6108fd8133612529565b6119d7816107de565b6108fd5760405162461bcd60e51b815260040161089f90613d25565b6119fb6129a3565b600054604051631945d5e760e21b81526001600160a01b0390911690636517579c90611a2b908590600401613979565b604080518083038186803b158015611a4257600080fd5b505afa158015611a56573d6000803e3d6000fd5b505050506040513d601f19601f82011682018060405250810190610f649190613429565b6000546040517fb3d8b20e0000000000000000000000000000000000000000000000000000000081526060916001600160a01b03169063b3d8b20e90611ac4908590600401613979565b60006040518083038186803b158015611adc57600080fd5b505afa158015611af0573d6000803e3d6000fd5b505050506040513d6000823e601f3d908101601f19168201604052610f649190810190612fa7565b611b20612957565b600054604051630444dc8760e31b81526001600160a01b0390911690632226e43890611b50908590600401613ecc565b60006040518083038186803b158015611b6857600080fd5b505afa158015611b7c573d6000803e3d6000fd5b505050506040513d6000823e601f3d908101601f19168201604052611ba491908101906132cd565b90508060c00151610bf55760405162461bcd60e51b815260040161089f90613b4b565b611bd033611982565b611bd986611b18565b6000611be433612113565b6000546040805180820182526001815260208101849052905163c17b528960e01b81529293506001600160a01b039091169163c17b528991611c2b918a91906004016138d7565b600060405180830381600087803b158015611c4557600080fd5b505af1158015611c59573d6000803e3d6000fd5b50506040516001600160a01b03891692503480156108fc029250906000818181858888f19350505050158015611c93573d6000803e3d6000fd5b50600054604051630bc8e5db60e21b81526001600160a01b0390911690632f23976c90611cce908a9085908a908a908a908a90600401613f04565b600060405180830381600087803b158015611ce857600080fd5b505af1158015611cfc573d6000803e3d6000fd5b5050505050505050505050565b611d1285611b18565b611d1c8533611909565b611d24612957565b600054604051630444dc8760e31b81526001600160a01b0390911690632226e43890611d54908990600401613ecc565b60006040518083038186803b158015611d6c57600080fd5b505afa158015611d80573d6000803e3d6000fd5b505050506040513d6000823e601f3d908101601f19168201604052611da891908101906132cd565b6040808201879052606082018690526080820185905260a082018490526000549051632869600760e11b81529192506001600160a01b0316906350d2c00e9061165b9089908590600401613f50565b606060008383604051602001611e0e929190613a51565b60408051601f198184030181529082905280516020909101206000547fdce2dd170000000000000000000000000000000000000000000000000000000083529092506001600160a01b03169063dce2dd1790611e6e908490600401613979565b60006040518083038186803b158015611e8657600080fd5b505afa158015611e9a573d6000803e3d6000fd5b505050506040513d6000823e601f3d908101601f19168201604052611ec291908101906131f2565b949350505050565b611ed381610f6a565b156108fd5760405162461bcd60e51b815260040161089f90613b82565b6001546001600160a01b03163314611f1a5760405162461bcd60e51b815260040161089f90613b14565b6000604051611f289061387d565b60405180910390209050611f3a6129a3565b600054604051631945d5e760e21b81526001600160a01b0390911690636517579c90611f6a908590600401613979565b604080518083038186803b158015611f8157600080fd5b505afa158015611f95573d6000803e3d6000fd5b505050506040513d601f19601f82011682018060405250810190611fb99190613429565b9050806020015115156001151514610bf557611fd58233612529565b6060806000612051856040518060400160405280600881526020017f4765744c6f67696e0000000000000000000000000000000000000000000000008152506040518060400160405280601381526020017f4765744c6f67696e202d206175746820617070000000000000000000000000008152508686612271565b9050612092816040518060400160405280601d81526020017f68747470733a2f2f6c6f63616c686f73743a333030312f6f70656e69640000008152506124a8565b6120d1816040518060400160405280601781526020017f68747470733a2f2f6c6f63616c686f73743a333030312f0000000000000000008152506124a8565b6120ef81739a0cde760277dc3a4b2ac6e9d333af45148ebb60612705565b5050505050565b6120ff82611b18565b6121098233611909565b610bf58282612899565b600061211e82611695565b5192915050565b6000612130826119f3565b6020015192915050565b6121448133611909565b6108fd816001612750565b600061215a33612113565b60028054604080516020601f60001961010060018716150201909416859004938401819004810282018101909252828152939450610bf5938593909290918301828280156121e95780601f106121be576101008083540402835291602001916121e9565b820191906000526020600020905b8154815290600101906020018083116121cc57829003601f168201915b50505050508461268e565b6000546040517f9931f4f20000000000000000000000000000000000000000000000000000000081526001600160a01b0390911690639931f4f290612243908790879087908790600401613a07565b600060405180830381600087803b15801561225d57600080fd5b505af1158015610b7b573d6000803e3d6000fd5b60008054604080517f05031a88000000000000000000000000000000000000000000000000000000008152905183926001600160a01b0316916305031a88916004808301926020929190829003018186803b1580156122cf57600080fd5b505afa1580156122e3573d6000803e3d6000fd5b505050506040513d601f19601f8201168201806040525081019061230791906134b9565b6000546040805160e08101825267ffffffffffffffff84168152602081018b90528082018a9052606081018990526080810188905260a08101879052600160c08201529051632869600760e11b81529293506001600160a01b03909116916350d2c00e9161237a91859190600401613f50565b600060405180830381600087803b15801561239457600080fd5b505af11580156123a8573d6000803e3d6000fd5b505060008054604080517f3122da9800000000000000000000000000000000000000000000000000000000815290516001600160a01b039092169450633122da989350600480820193929182900301818387803b15801561240857600080fd5b505af115801561241c573d6000803e3d6000fd5b50506000546040517fb68baa150000000000000000000000000000000000000000000000000000000081526001600160a01b03909116925063b68baa15915061246b908a908590600401613ab2565b600060405180830381600087803b15801561248557600080fd5b505af1158015612499573d6000803e3d6000fd5b50929998505050505050505050565b6000546040517f036fbb740000000000000000000000000000000000000000000000000000000081526001600160a01b039091169063036fbb74906124f39085908590600401613f2d565b600060405180830381600087803b15801561250d57600080fd5b505af1158015612521573d6000803e3d6000fd5b505050505050565b61253282612125565b1561254f5760405162461bcd60e51b815260040161089f90613bb9565b61255881610f6a565b156125755760405162461bcd60e51b815260040161089f90613add565b6000546040805180820182528481526001602082015290517f58ad50220000000000000000000000000000000000000000000000000000000081526001600160a01b03909216916358ad5022916125d191869190600401613a9e565b600060405180830381600087803b1580156125eb57600080fd5b505af11580156125ff573d6000803e3d6000fd5b50506000546040805180820182526001815260208101879052905163c17b528960e01b81526001600160a01b03909216935063c17b52899250612647918591906004016138d7565b600060405180830381600087803b15801561266157600080fd5b505af1158015612675573d6000803e3d6000fd5b5050600354610bf59250849150839060ff1660006121f4565b600083836040516020016126a3929190613a51565b60408051601f198184030181529082905280516020909101206000547f6fb890510000000000000000000000000000000000000000000000000000000083529092506001600160a01b031690636fb89051906122439084908690600401613a38565b6000546040517f212109e40000000000000000000000000000000000000000000000000000000081526001600160a01b039091169063212109e4906124f39085908590600401613ee1565b612758612957565b600054604051630444dc8760e31b81526001600160a01b0390911690632226e43890612788908690600401613ecc565b60006040518083038186803b1580156127a057600080fd5b505afa1580156127b4573d6000803e3d6000fd5b505050506040513d6000823e601f3d908101601f191682016040526127dc91908101906132cd565b82151560c0820152600054604051632869600760e11b81529192506001600160a01b0316906350d2c00e906128179086908590600401613f50565b600060405180830381600087803b15801561283157600080fd5b505af1158015612845573d6000803e3d6000fd5b50505050505050565b6000546040517fabc040ca0000000000000000000000000000000000000000000000000000000081526001600160a01b039091169063abc040ca906124f39085908590600401613f73565b6000546040517fec46474c0000000000000000000000000000000000000000000000000000000081526001600160a01b039091169063ec46474c906124f39085908590600401613f73565b60408051608081018252600080825260208201819052918101829052606081019190915290565b6040518060a00160405280600067ffffffffffffffff168152602001606081526020016060815260200160608152602001606081525090565b6040518060200160405280606081525090565b6040518060e00160405280600067ffffffffffffffff16815260200160008019168152602001606081526020016060815260200160608152602001606081526020016000151581525090565b604080518082019091526000808252602082015290565b8051610f6481614024565b8035610f6481614024565b600082601f8301126129e0578081fd5b81516129f36129ee82613fb4565b613f8d565b818152915060208083019084810181840286018201871015612a1457600080fd5b60005b84811015612a3c578151612a2a81614024565b84529282019290820190600101612a17565b505050505092915050565b600082601f830112612a57578081fd5b8135612a656129ee82613fb4565b818152915060208083019084810181840286018201871015612a8657600080fd5b60005b84811015612a3c578135612a9c81614024565b84529282019290820190600101612a89565b600082601f830112612abe578081fd5b8151612acc6129ee82613fb4565b818152915060208083019084810160005b84811015612a3c57612af4888484518a0101612ce5565b84529282019290820190600101612add565b600082601f830112612b16578081fd5b8135612b246129ee82613fb4565b818152915060208083019084810160005b84811015612a3c57612b4c888484358a0101612c97565b84529282019290820190600101612b35565b600082601f830112612b6e578081fd5b8135612b7c6129ee82613fb4565b818152915060208083019084810160005b84811015612a3c578135870160a080601f19838c03011215612bae57600080fd5b612bb781613f8d565b612bc38b878501612d32565b815260408084013567ffffffffffffffff80821115612be157600080fd5b612bef8e8a84890101612c97565b89850152606091508186013581811115612c0857600080fd5b612c168f8b838a0101612c97565b8486015250608092508286013581811115612c3057600080fd5b612c3e8f8b838a0101612c97565b838601525084860135915080821115612c5657600080fd5b50612c658d8983880101612c97565b9183019190915250865250509282019290820190600101612b8d565b8035610f6481614039565b8051610f6481614039565b600082601f830112612ca7578081fd5b8135612cb56129ee82613fd4565b9150808252836020828501011115612ccc57600080fd5b8060208401602084013760009082016020015292915050565b600082601f830112612cf5578081fd5b8151612d036129ee82613fd4565b9150808252836020828501011115612d1a57600080fd5b612d2b816020840160208601613ff8565b5092915050565b8035610f6481614047565b8051610f6481614047565b805160ff81168114610f6457600080fd5b600060208284031215612d6a578081fd5b81356117c781614024565b600080600080600060a08688031215612d8c578081fd5b8535612d9781614024565b9450602086013567ffffffffffffffff80821115612db3578283fd5b612dbf89838a01612c97565b95506040880135915080821115612dd4578283fd5b612de089838a01612c97565b94506060880135915080821115612df5578283fd5b612e0189838a01612c97565b93506080880135915080821115612e16578283fd5b50612e2388828901612c97565b9150509295509295909350565b60008060008060008060c08789031215612e48578384fd5b612e5288886129c5565b9550602087013567ffffffffffffffff80821115612e6e578586fd5b612e7a8a838b01612c97565b96506040890135915080821115612e8f578586fd5b612e9b8a838b01612c97565b95506060890135915080821115612eb0578283fd5b612ebc8a838b01612c97565b94506080890135915080821115612ed1578283fd5b612edd8a838b01612c97565b935060a0890135915080821115612ef2578283fd5b50612eff89828a01612b5e565b9150509295509295509295565b60006020808385031215612f1e578182fd5b823567ffffffffffffffff811115612f34578283fd5b80840185601f820112612f45578384fd5b80359150612f556129ee83613fb4565b8281528381019082850185850284018601891015612f71578687fd5b8693505b84841015612f9b57612f8789826129c5565b835260019390930192918501918501612f75565b50979650505050505050565b60006020808385031215612fb9578182fd5b825167ffffffffffffffff811115612fcf578283fd5b80840185601f820112612fe0578384fd5b80519150612ff06129ee83613fb4565b828152838101908285016080808602850187018a101561300e578788fd5b8794505b8585101561307f5780828b031215613028578788fd5b61303181613f8d565b825181526130418b8985016129ba565b8882015260406130538c828601612d48565b9082015260606130658c858301612d3d565b908201528452600194909401939286019290810190613012565b509098975050505050505050565b60006020828403121561309e578081fd5b5035919050565b600080600080600080600060e0888a0312156130bf578485fd5b873596506130d08960208a016129c5565b9550604088013567ffffffffffffffff808211156130ec578687fd5b6130f88b838c01612c97565b965060608a013591508082111561310d578283fd5b6131198b838c01612c97565b955060808a013591508082111561312e578283fd5b61313a8b838c01612c97565b945060a08a013591508082111561314f578283fd5b5061315c8a828b01612c97565b92505061316c8960c08a01612c81565b905092959891949750929550565b6000806040838503121561318c578182fd5b82359150602083013567ffffffffffffffff8111156131a9578182fd5b6131b585828601612c97565b9150509250929050565b6000602082840312156131d0578081fd5b813567ffffffffffffffff8111156131e6578182fd5b611ec284828501612c97565b600060208284031215613203578081fd5b815167ffffffffffffffff811115613219578182fd5b611ec284828501612ce5565b6000806000806080858703121561323a578182fd5b843567ffffffffffffffff80821115613251578384fd5b61325d88838901612c97565b95506020870135915080821115613272578384fd5b61327e88838901612c97565b94506040870135915080821115613293578384fd5b61329f88838901612b06565b935060608701359150808211156132b4578283fd5b506132c187828801612a47565b91505092959194509250565b6000602082840312156132de578081fd5b815167ffffffffffffffff808211156132f5578283fd5b81840160e08187031215613307578384fd5b61331160e0613f8d565b925061331d8682612d3d565b83526020810151602084015260408101518281111561333a578485fd5b61334687828401612ce5565b60408501525060608101518281111561335d578485fd5b61336987828401612ce5565b606085015250608081015182811115613380578485fd5b61338c87828401612aae565b60808501525060a0810151828111156133a3578485fd5b6133af878284016129d0565b60a0850152506133c28660c08301612c8c565b60c08401525090949350505050565b6000608082840312156133e2578081fd5b6133ec6080613f8d565b82516133f781614024565b808252506020830151602082015260408301516040820152606083015161341d81614039565b60608201529392505050565b60006040828403121561343a578081fd5b6134446040613f8d565b82518152602083015161345681614039565b60208201529392505050565b600060408284031215613473578081fd5b61347d6040613f8d565b825161348881614039565b81526020928301519281019290925250919050565b6000602082840312156134ae578081fd5b81356117c781614047565b6000602082840312156134ca578081fd5b81516117c781614047565b600080604083850312156134e7578182fd5b82356134f281614047565b9150602083013561350281614024565b809150509250929050565b60008060008060008060c08789031215613525578384fd5b61352f8888612d32565b955061353e88602089016129c5565b9450604087013567ffffffffffffffff8082111561355a578586fd5b6135668a838b01612c97565b9550606089013591508082111561357b578384fd5b6135878a838b01612c97565b9450608089013591508082111561359c578384fd5b6135a88a838b01612c97565b935060a08901359150808211156135bd578283fd5b50612eff89828a01612c97565b600080604083850312156135dc578182fd5b82356135e781614047565b9150602083013567ffffffffffffffff8111156131a9578182fd5b600080600080600060a08688031215613619578283fd5b853561362481614047565b9450602086013567ffffffffffffffff80821115613640578485fd5b61364c89838a01612c97565b95506040880135915080821115613661578485fd5b61366d89838a01612c97565b94506060880135915080821115613682578283fd5b61368e89838a01612b06565b935060808801359150808211156136a3578283fd5b50612e2388828901612a47565b600080604083850312156136c2578182fd5b82356136cd81614047565b946020939093013593505050565b6000815180845260208085019450808401835b838110156137135781516001600160a01b0316875295820195908201906001016136ee565b509495945050505050565b15159052565b6000815180845261373c816020860160208601613ff8565b601f01601f19169290920160200192915050565b600067ffffffffffffffff825116835260208083015181850152604083015160e0604086015261378360e0860182613724565b60608501519150858103606087015261379c8183613724565b60808601519250868103608088015280915082518082528482019250848582028301018585018795505b828610156137f657601f198483030185526137e2828251613724565b6001969096019594870194915086016137c6565b5060a0880151955088810360a08a015261381081876136db565b94505050505060c08401519150611ec260c086018361371e565b6001600160a01b03815116825260208101516020830152604081015160408301526060810151151560608301525050565b805182526020908101511515910152565b805115158252602090810151910152565b7f61646d696e000000000000000000000000000000000000000000000000000000815260050190565b6001600160a01b0391909116815260200190565b6001600160a01b038316815260a081016117c7602083018461382a565b6001600160a01b0383168152606081016117c7602083018461386c565b602080825282518282018190526000919060409081850190868401855b8281101561396157815180518552868101516001600160a01b0316878601528581015160ff168686015260609081015167ffffffffffffffff169085015260809093019290850190600101613911565b5091979650505050505050565b901515815260200190565b90815260200190565b9182526001600160a01b0316602082015260400190565b60008782526001600160a01b038716602083015260c060408301526139c160c0830187613724565b82810360608401526139d38187613724565b83810360808501526139e58187613724565b91505082810360a08401526139fa8185613724565b9998505050505050505050565b9384526001600160a01b0392909216602084015260ff16604083015267ffffffffffffffff16606082015260800190565b600083825260406020830152611ec26040830184613724565b600083825260606020830152600160608301527f5f00000000000000000000000000000000000000000000000000000000000000608083015260a06040830152611ec260a0830184613724565b828152606081016117c7602083018461385b565b91825267ffffffffffffffff16602082015260400190565b6000602082526117c76020830184613724565b60208082526013908201527f57616c6c657420616c7265616479207573656400000000000000000000000000604082015260600190565b60208082526017908201527f43616c6c6572206973206e6f7420746865206f776e6572000000000000000000604082015260600190565b6020808252600d908201527f417070206e6f7420666f756e6400000000000000000000000000000000000000604082015260600190565b6020808252601a908201527f4164647265737320616c72656164792072656769737465726564000000000000604082015260600190565b60208082526015908201527f557365726e616d6520616c726561647920757365640000000000000000000000604082015260600190565b60208082526027908201527f4f6e6c7920696e61637469766520696e766974652063616e207265736574207060408201527f617373776f726400000000000000000000000000000000000000000000000000606082015260800190565b6020808252600490820152637472756560e01b604082015260600190565b60208082526024908201527f54686973206164647265737320616c7265616479207573656420666f7220696e60408201527f7669746500000000000000000000000000000000000000000000000000000000606082015260800190565b60208082526021908201527f53657474696e6773206e6f7420616c6c6f772072657365742070617373776f7260408201527f6400000000000000000000000000000000000000000000000000000000000000606082015260800190565b60208082526011908201527f496e76697465206e6f7420616374697665000000000000000000000000000000604082015260600190565b60208082526016908201527f41646472657373206e6f74207265676973746572656400000000000000000000604082015260600190565b6020808252818101527f55736572207769746820746869732061646472657373206e6f7420666f756e64604082015260600190565b6020808252602a908201527f596f7520646f206e6f7420686176652061636365737320746f2074686973206160408201527f70706c69636174696f6e00000000000000000000000000000000000000000000606082015260800190565b6020808252602c908201527f4f6e6c7920696e76697465207769746820757365726e616d652063616e20726560408201527f7365742070617373776f72640000000000000000000000000000000000000000606082015260800190565b6000602082526117c76020830184613750565b60808101610f64828461382a565b6000602082528251602080840152611ec26040840182613724565b60408101610f64828461385b565b67ffffffffffffffff91909116815260200190565b67ffffffffffffffff9290921682526001600160a01b0316602082015260400190565b600067ffffffffffffffff8816825286602083015260c060408301526139c160c0830187613724565b600067ffffffffffffffff8416825260406020830152611ec26040830184613724565b600067ffffffffffffffff8416825260406020830152611ec26040830184613750565b67ffffffffffffffff929092168252602082015260400190565b60405181810167ffffffffffffffff81118282101715613fac57600080fd5b604052919050565b600067ffffffffffffffff821115613fca578081fd5b5060209081020190565b600067ffffffffffffffff821115613fea578081fd5b50601f01601f191660200190565b60005b83811015614013578181015183820152602001613ffb565b838111156112a35750506000910152565b6001600160a01b03811681146108fd57600080fd5b80151581146108fd57600080fd5b67ffffffffffffffff811681146108fd57600080fdfea26469706673582212200cb1546622a016a08361b90cc6f09ff61683a87192357a7966e7817f1ccda6c564736f6c63430006040033",
  "linkReferences": {},
  "deployedLinkReferences": {}
}