{
  "_format": "hh-sol-artifact-1",
  "contractName": "GetLoginStorage",
  "sourceName": "contracts/GetLoginStorage.sol",
  "abi": [
    {
      "inputs": [],
      "stateMutability": "nonpayable",
      "type": "constructor"
    },
    {
      "anonymous": false,
      "inputs": [
        {
          "indexed": true,
          "internalType": "bytes32",
          "name": "creatorUsername",
          "type": "bytes32"
        },
        {
          "indexed": true,
          "internalType": "uint64",
          "name": "appId",
          "type": "uint64"
        }
      ],
      "name": "EventAppCreated",
      "type": "event"
    },
    {
      "anonymous": false,
      "inputs": [
        {
          "indexed": true,
          "internalType": "uint64",
          "name": "appId",
          "type": "uint64"
        },
        {
          "indexed": true,
          "internalType": "bytes32",
          "name": "username",
          "type": "bytes32"
        },
        {
          "indexed": false,
          "internalType": "string",
          "name": "iv",
          "type": "string"
        },
        {
          "indexed": false,
          "internalType": "string",
          "name": "ephemPublicKey",
          "type": "string"
        },
        {
          "indexed": false,
          "internalType": "string",
          "name": "ciphertext",
          "type": "string"
        },
        {
          "indexed": false,
          "internalType": "string",
          "name": "mac",
          "type": "string"
        }
      ],
      "name": "EventAppSession",
      "type": "event"
    },
    {
      "anonymous": false,
      "inputs": [
        {
          "indexed": true,
          "internalType": "bytes32",
          "name": "creatorUsername",
          "type": "bytes32"
        },
        {
          "indexed": false,
          "internalType": "address",
          "name": "inviteAddress",
          "type": "address"
        }
      ],
      "name": "EventInviteCreated",
      "type": "event"
    },
    {
      "anonymous": false,
      "inputs": [
        {
          "indexed": true,
          "internalType": "bytes32",
          "name": "username",
          "type": "bytes32"
        },
        {
          "indexed": true,
          "internalType": "address",
          "name": "walletAddress",
          "type": "address"
        },
        {
          "indexed": false,
          "internalType": "string",
          "name": "ciphertext",
          "type": "string"
        },
        {
          "indexed": false,
          "internalType": "string",
          "name": "iv",
          "type": "string"
        },
        {
          "indexed": false,
          "internalType": "string",
          "name": "salt",
          "type": "string"
        },
        {
          "indexed": false,
          "internalType": "string",
          "name": "mac",
          "type": "string"
        }
      ],
      "name": "EventStoreWallet",
      "type": "event"
    },
    {
      "inputs": [
        {
          "internalType": "uint64",
          "name": "",
          "type": "uint64"
        }
      ],
      "name": "Applications",
      "outputs": [
        {
          "internalType": "uint64",
          "name": "id",
          "type": "uint64"
        },
        {
          "internalType": "bytes32",
          "name": "usernameHash",
          "type": "bytes32"
        },
        {
          "internalType": "string",
          "name": "title",
          "type": "string"
        },
        {
          "internalType": "string",
          "name": "description",
          "type": "string"
        },
        {
          "internalType": "bool",
          "name": "isActive",
          "type": "bool"
        }
      ],
      "stateMutability": "view",
      "type": "function"
    },
    {
      "inputs": [
        {
          "internalType": "address",
          "name": "",
          "type": "address"
        }
      ],
      "name": "Invites",
      "outputs": [
        {
          "internalType": "address",
          "name": "inviteAddress",
          "type": "address"
        },
        {
          "internalType": "bytes32",
          "name": "creatorUsername",
          "type": "bytes32"
        },
        {
          "internalType": "bytes32",
          "name": "registeredUsername",
          "type": "bytes32"
        },
        {
          "internalType": "bool",
          "name": "isActive",
          "type": "bool"
        }
      ],
      "stateMutability": "view",
      "type": "function"
    },
    {
      "inputs": [
        {
          "internalType": "bytes32",
          "name": "",
          "type": "bytes32"
        },
        {
          "internalType": "uint256",
          "name": "",
          "type": "uint256"
        }
      ],
      "name": "UserSessions",
      "outputs": [
        {
          "internalType": "bytes32",
          "name": "username",
          "type": "bytes32"
        },
        {
          "internalType": "address",
          "name": "wallet",
          "type": "address"
        },
        {
          "internalType": "uint8",
          "name": "sessionType",
          "type": "uint8"
        },
        {
          "internalType": "uint64",
          "name": "appId",
          "type": "uint64"
        }
      ],
      "stateMutability": "view",
      "type": "function"
    },
    {
      "inputs": [
        {
          "internalType": "bytes32",
          "name": "",
          "type": "bytes32"
        }
      ],
      "name": "Users",
      "outputs": [
        {
          "internalType": "bytes32",
          "name": "username",
          "type": "bytes32"
        },
        {
          "internalType": "bool",
          "name": "isActive",
          "type": "bool"
        }
      ],
      "stateMutability": "view",
      "type": "function"
    },
    {
      "inputs": [
        {
          "internalType": "address",
          "name": "",
          "type": "address"
        }
      ],
      "name": "UsersAddressUsername",
      "outputs": [
        {
          "internalType": "bool",
          "name": "isActive",
          "type": "bool"
        },
        {
          "internalType": "bytes32",
          "name": "username",
          "type": "bytes32"
        }
      ],
      "stateMutability": "view",
      "type": "function"
    },
    {
      "inputs": [
        {
          "internalType": "bytes32",
          "name": "",
          "type": "bytes32"
        }
      ],
      "name": "UsersSettings",
      "outputs": [
        {
          "internalType": "string",
          "name": "",
          "type": "string"
        }
      ],
      "stateMutability": "view",
      "type": "function"
    },
    {
      "inputs": [],
      "name": "applicationId",
      "outputs": [
        {
          "internalType": "uint64",
          "name": "",
          "type": "uint64"
        }
      ],
      "stateMutability": "view",
      "type": "function"
    },
    {
      "inputs": [
        {
          "internalType": "uint64",
          "name": "id",
          "type": "uint64"
        },
        {
          "internalType": "uint256",
          "name": "index",
          "type": "uint256"
        }
      ],
      "name": "deleteApplicationContract",
      "outputs": [],
      "stateMutability": "nonpayable",
      "type": "function"
    },
    {
      "inputs": [
        {
          "internalType": "uint64",
          "name": "id",
          "type": "uint64"
        },
        {
          "internalType": "uint256",
          "name": "index",
          "type": "uint256"
        }
      ],
      "name": "deleteApplicationUrl",
      "outputs": [],
      "stateMutability": "nonpayable",
      "type": "function"
    },
    {
      "inputs": [
        {
          "internalType": "bytes32",
          "name": "creatorUsername",
          "type": "bytes32"
        },
        {
          "internalType": "uint64",
          "name": "appId",
          "type": "uint64"
        }
      ],
      "name": "emitEventAppCreated",
      "outputs": [],
      "stateMutability": "nonpayable",
      "type": "function"
    },
    {
      "inputs": [
        {
          "internalType": "uint64",
          "name": "appId",
          "type": "uint64"
        },
        {
          "internalType": "bytes32",
          "name": "username",
          "type": "bytes32"
        },
        {
          "internalType": "string",
          "name": "iv",
          "type": "string"
        },
        {
          "internalType": "string",
          "name": "ephemPublicKey",
          "type": "string"
        },
        {
          "internalType": "string",
          "name": "ciphertext",
          "type": "string"
        },
        {
          "internalType": "string",
          "name": "mac",
          "type": "string"
        }
      ],
      "name": "emitEventAppSession",
      "outputs": [],
      "stateMutability": "nonpayable",
      "type": "function"
    },
    {
      "inputs": [
        {
          "internalType": "bytes32",
          "name": "creatorUsername",
          "type": "bytes32"
        },
        {
          "internalType": "address",
          "name": "inviteAddress",
          "type": "address"
        }
      ],
      "name": "emitEventInviteCreated",
      "outputs": [],
      "stateMutability": "nonpayable",
      "type": "function"
    },
    {
      "inputs": [
        {
          "internalType": "bytes32",
          "name": "username",
          "type": "bytes32"
        },
        {
          "internalType": "address",
          "name": "walletAddress",
          "type": "address"
        },
        {
          "internalType": "string",
          "name": "ciphertext",
          "type": "string"
        },
        {
          "internalType": "string",
          "name": "iv",
          "type": "string"
        },
        {
          "internalType": "string",
          "name": "salt",
          "type": "string"
        },
        {
          "internalType": "string",
          "name": "mac",
          "type": "string"
        }
      ],
      "name": "emitEventStoreWallet",
      "outputs": [],
      "stateMutability": "nonpayable",
      "type": "function"
    },
    {
      "inputs": [
        {
          "internalType": "uint64",
          "name": "id",
          "type": "uint64"
        }
      ],
      "name": "getApplication",
      "outputs": [
        {
          "components": [
            {
              "internalType": "uint64",
              "name": "id",
              "type": "uint64"
            },
            {
              "internalType": "bytes32",
              "name": "usernameHash",
              "type": "bytes32"
            },
            {
              "internalType": "string",
              "name": "title",
              "type": "string"
            },
            {
              "internalType": "string",
              "name": "description",
              "type": "string"
            },
            {
              "internalType": "string[]",
              "name": "allowedUrls",
              "type": "string[]"
            },
            {
              "internalType": "address[]",
              "name": "allowedContracts",
              "type": "address[]"
            },
            {
              "internalType": "bool",
              "name": "isActive",
              "type": "bool"
            }
          ],
          "internalType": "struct GetLoginStorage.Application",
          "name": "",
          "type": "tuple"
        }
      ],
      "stateMutability": "view",
      "type": "function"
    },
    {
      "inputs": [],
      "name": "getApplicationId",
      "outputs": [
        {
          "internalType": "uint64",
          "name": "",
          "type": "uint64"
        }
      ],
      "stateMutability": "view",
      "type": "function"
    },
    {
      "inputs": [
        {
          "internalType": "address",
          "name": "_address",
          "type": "address"
        }
      ],
      "name": "getInvite",
      "outputs": [
        {
          "components": [
            {
              "internalType": "address",
              "name": "inviteAddress",
              "type": "address"
            },
            {
              "internalType": "bytes32",
              "name": "creatorUsername",
              "type": "bytes32"
            },
            {
              "internalType": "bytes32",
              "name": "registeredUsername",
              "type": "bytes32"
            },
            {
              "internalType": "bool",
              "name": "isActive",
              "type": "bool"
            }
          ],
          "internalType": "struct GetLoginStorage.InviteInfo",
          "name": "",
          "type": "tuple"
        }
      ],
      "stateMutability": "view",
      "type": "function"
    },
    {
      "inputs": [],
      "name": "getLogicAddress",
      "outputs": [
        {
          "internalType": "address",
          "name": "",
          "type": "address"
        }
      ],
      "stateMutability": "view",
      "type": "function"
    },
    {
      "inputs": [],
      "name": "getOwner",
      "outputs": [
        {
          "internalType": "address",
          "name": "",
          "type": "address"
        }
      ],
      "stateMutability": "view",
      "type": "function"
    },
    {
      "inputs": [
        {
          "internalType": "bytes32",
          "name": "key",
          "type": "bytes32"
        }
      ],
      "name": "getSettings",
      "outputs": [
        {
          "internalType": "string",
          "name": "",
          "type": "string"
        }
      ],
      "stateMutability": "view",
      "type": "function"
    },
    {
      "inputs": [
        {
          "internalType": "bytes32",
          "name": "usernameHash",
          "type": "bytes32"
        }
      ],
      "name": "getUser",
      "outputs": [
        {
          "components": [
            {
              "internalType": "bytes32",
              "name": "username",
              "type": "bytes32"
            },
            {
              "internalType": "bool",
              "name": "isActive",
              "type": "bool"
            }
          ],
          "internalType": "struct GetLoginStorage.UserInfo",
          "name": "",
          "type": "tuple"
        }
      ],
      "stateMutability": "view",
      "type": "function"
    },
    {
      "inputs": [
        {
          "internalType": "bytes32",
          "name": "usernameHash",
          "type": "bytes32"
        }
      ],
      "name": "getUserSessions",
      "outputs": [
        {
          "components": [
            {
              "internalType": "bytes32",
              "name": "username",
              "type": "bytes32"
            },
            {
              "internalType": "address",
              "name": "wallet",
              "type": "address"
            },
            {
              "internalType": "uint8",
              "name": "sessionType",
              "type": "uint8"
            },
            {
              "internalType": "uint64",
              "name": "appId",
              "type": "uint64"
            }
          ],
          "internalType": "struct GetLoginStorage.UserSession[]",
          "name": "",
          "type": "tuple[]"
        }
      ],
      "stateMutability": "view",
      "type": "function"
    },
    {
      "inputs": [
        {
          "internalType": "address",
          "name": "_address",
          "type": "address"
        }
      ],
      "name": "getUsersAddressUsername",
      "outputs": [
        {
          "components": [
            {
              "internalType": "bool",
              "name": "isActive",
              "type": "bool"
            },
            {
              "internalType": "bytes32",
              "name": "username",
              "type": "bytes32"
            }
          ],
          "internalType": "struct GetLoginStorage.Username",
          "name": "",
          "type": "tuple"
        }
      ],
      "stateMutability": "view",
      "type": "function"
    },
    {
      "inputs": [],
      "name": "incrementApplicationId",
      "outputs": [],
      "stateMutability": "nonpayable",
      "type": "function"
    },
    {
      "inputs": [],
      "name": "logicAddress",
      "outputs": [
        {
          "internalType": "address",
          "name": "",
          "type": "address"
        }
      ],
      "stateMutability": "view",
      "type": "function"
    },
    {
      "inputs": [],
      "name": "owner",
      "outputs": [
        {
          "internalType": "address",
          "name": "",
          "type": "address"
        }
      ],
      "stateMutability": "view",
      "type": "function"
    },
    {
      "inputs": [
        {
          "internalType": "uint64",
          "name": "id",
          "type": "uint64"
        },
        {
          "internalType": "address",
          "name": "wallet",
          "type": "address"
        }
      ],
      "name": "pushApplicationContract",
      "outputs": [],
      "stateMutability": "nonpayable",
      "type": "function"
    },
    {
      "inputs": [
        {
          "internalType": "uint64",
          "name": "id",
          "type": "uint64"
        },
        {
          "internalType": "string",
          "name": "url",
          "type": "string"
        }
      ],
      "name": "pushApplicationUrl",
      "outputs": [],
      "stateMutability": "nonpayable",
      "type": "function"
    },
    {
      "inputs": [
        {
          "internalType": "bytes32",
          "name": "usernameHash",
          "type": "bytes32"
        },
        {
          "internalType": "address",
          "name": "wallet",
          "type": "address"
        },
        {
          "internalType": "uint8",
          "name": "sessionType",
          "type": "uint8"
        },
        {
          "internalType": "uint64",
          "name": "appId",
          "type": "uint64"
        }
      ],
      "name": "pushUserSession",
      "outputs": [],
      "stateMutability": "nonpayable",
      "type": "function"
    },
    {
      "inputs": [
        {
          "internalType": "uint64",
          "name": "id",
          "type": "uint64"
        },
        {
          "components": [
            {
              "internalType": "uint64",
              "name": "id",
              "type": "uint64"
            },
            {
              "internalType": "bytes32",
              "name": "usernameHash",
              "type": "bytes32"
            },
            {
              "internalType": "string",
              "name": "title",
              "type": "string"
            },
            {
              "internalType": "string",
              "name": "description",
              "type": "string"
            },
            {
              "internalType": "string[]",
              "name": "allowedUrls",
              "type": "string[]"
            },
            {
              "internalType": "address[]",
              "name": "allowedContracts",
              "type": "address[]"
            },
            {
              "internalType": "bool",
              "name": "isActive",
              "type": "bool"
            }
          ],
          "internalType": "struct GetLoginStorage.Application",
          "name": "data",
          "type": "tuple"
        }
      ],
      "name": "setApplication",
      "outputs": [],
      "stateMutability": "nonpayable",
      "type": "function"
    },
    {
      "inputs": [
        {
          "internalType": "address",
          "name": "_address",
          "type": "address"
        },
        {
          "components": [
            {
              "internalType": "address",
              "name": "inviteAddress",
              "type": "address"
            },
            {
              "internalType": "bytes32",
              "name": "creatorUsername",
              "type": "bytes32"
            },
            {
              "internalType": "bytes32",
              "name": "registeredUsername",
              "type": "bytes32"
            },
            {
              "internalType": "bool",
              "name": "isActive",
              "type": "bool"
            }
          ],
          "internalType": "struct GetLoginStorage.InviteInfo",
          "name": "data",
          "type": "tuple"
        }
      ],
      "name": "setInvite",
      "outputs": [],
      "stateMutability": "nonpayable",
      "type": "function"
    },
    {
      "inputs": [
        {
          "internalType": "address",
          "name": "_address",
          "type": "address"
        }
      ],
      "name": "setLogicAddress",
      "outputs": [],
      "stateMutability": "nonpayable",
      "type": "function"
    },
    {
      "inputs": [
        {
          "internalType": "bytes32",
          "name": "key",
          "type": "bytes32"
        },
        {
          "internalType": "string",
          "name": "value",
          "type": "string"
        }
      ],
      "name": "setSettings",
      "outputs": [],
      "stateMutability": "nonpayable",
      "type": "function"
    },
    {
      "inputs": [
        {
          "internalType": "bytes32",
          "name": "usernameHash",
          "type": "bytes32"
        },
        {
          "components": [
            {
              "internalType": "bytes32",
              "name": "username",
              "type": "bytes32"
            },
            {
              "internalType": "bool",
              "name": "isActive",
              "type": "bool"
            }
          ],
          "internalType": "struct GetLoginStorage.UserInfo",
          "name": "info",
          "type": "tuple"
        }
      ],
      "name": "setUser",
      "outputs": [],
      "stateMutability": "nonpayable",
      "type": "function"
    },
    {
      "inputs": [
        {
          "internalType": "address",
          "name": "_address",
          "type": "address"
        },
        {
          "components": [
            {
              "internalType": "bool",
              "name": "isActive",
              "type": "bool"
            },
            {
              "internalType": "bytes32",
              "name": "username",
              "type": "bytes32"
            }
          ],
          "internalType": "struct GetLoginStorage.Username",
          "name": "info",
          "type": "tuple"
        }
      ],
      "name": "setUsersAddressUsername",
      "outputs": [],
      "stateMutability": "nonpayable",
      "type": "function"
    }
  ],
  "bytecode": "0x608060405260018054600160a01b600160e01b031916600160a01b17905534801561002957600080fd5b50600080546001600160a01b0319163317905561230a8061004b6000396000f3fe608060405234801561001057600080fd5b50600436106102265760003560e01c80638da0c6e31161012a578063b3d8b20e116100bd578063dcac263e1161008c578063ec46474c11610071578063ec46474c146104da578063f0e881b7146104ed578063fdcfc3ef1461051157610226565b8063dcac263e146104a7578063dce2dd17146104c757610226565b8063b3d8b20e14610441578063b68baa1514610461578063c17b528914610474578063cf1d3e7c1461048757610226565b8063a091acb2116100f9578063a091acb2146103e2578063abc040ca14610405578063abd108ba14610418578063b302e9511461042057610226565b80638da0c6e31461039e5780638da5cb5b146103bf5780639931f4f2146103c75780639c1fcc4c146103da57610226565b80633122da98116101bd5780636517579c1161018c5780636fb89051116101715780636fb890511461036e578063893d20e8146103815780638ad104191461039657610226565b80636517579c1461033b5780636d822b441461035b57610226565b80633122da98146102ed57806350d2c00e146102f557806358ad50221461030857806361c65e2c1461031b57610226565b8063212109e4116101f9578063212109e4146102945780632226e438146102a75780632ef9adc3146102c75780632f23976c146102da57610226565b8063036fbb741461022b57806305031a88146102405780630913be411461025e578063166189e114610271575b600080fd5b61023e610239366004611cb2565b610524565b005b61024861059c565b6040516102559190612205565b60405180910390f35b61023e61026c3660046118f8565b6105b4565b61028461027f3660046118d6565b61063b565b6040516102559493929190611f32565b61023e6102a2366004611c42565b61066f565b6102ba6102b5366004611c1a565b6106e6565b60405161025591906120f0565b61023e6102d53660046119ea565b61099c565b61023e6102e8366004611c6d565b610a02565b61023e610a7d565b61023e610303366004611ce9565b610aed565b61023e610316366004611b75565b610be3565b61032e6103293660046118d6565b610c3b565b604051610255919061219d565b61034e6103493660046119d2565b610c99565b60405161025591906121d3565b61023e610369366004611a19565b610cd0565b61023e61037c366004611b30565b610d3a565b610389610d83565b6040516102559190611f1e565b610248610d92565b6103b16103ac3660046119d2565b610da9565b604051610255929190612008565b610389610dc5565b61023e6103d5366004611adb565b610dd4565b610389610eea565b6103f56103f0366004611bcd565b610ef9565b6040516102559493929190611fd7565b61023e610413366004611dff565b610f58565b610389610fc7565b61043361042e3660046118d6565b610fd6565b604051610255929190611fc7565b61045461044f3660046119d2565b610ff5565b6040516102559190611f5a565b61023e61046f366004611bee565b6110a6565b61023e610482366004611974565b61110b565b61049a6104953660046119d2565b61116b565b6040516102559190612018565b6104ba6104b53660046118d6565b611206565b60405161025591906121ec565b61049a6104d53660046119d2565b611246565b61023e6104e8366004611dff565b6112e7565b6105006104fb366004611c1a565b611353565b60405161025595949392919061221a565b61023e61051f3660046118d6565b6114a3565b6001546001600160a01b031633146105575760405162461bcd60e51b815260040161054e906120b9565b60405180910390fd5b67ffffffffffffffff82166000908152600760209081526040822060040180546001810182559083529181902083516105979391909101918401906114ef565b505050565b600154600160a01b900467ffffffffffffffff165b90565b6001546001600160a01b031633146105de5760405162461bcd60e51b815260040161054e906120b9565b6001600160a01b03918216600090815260066020908152604091829020835181546001600160a01b031916951694909417845582015160018401558101516002830155606001516003909101805460ff1916911515919091179055565b60066020526000908152604090208054600182015460028301546003909301546001600160a01b0390921692909160ff1684565b6001546001600160a01b031633146106995760405162461bcd60e51b815260040161054e906120b9565b67ffffffffffffffff9190911660009081526007602090815260408220600501805460018101825590835291200180546001600160a01b0319166001600160a01b03909216919091179055565b6106ee61156d565b67ffffffffffffffff828116600090815260076020908152604091829020825160e08101845281549094168452600180820154858401526002808301805486516101009482161594909402600019011691909104601f810185900485028301850186528083529294860193919290918301828280156107ae5780601f10610783576101008083540402835291602001916107ae565b820191906000526020600020905b81548152906001019060200180831161079157829003601f168201915b505050918352505060038201805460408051602060026001851615610100026000190190941693909304601f81018490048402820184019092528181529382019392918301828280156108425780601f1061081757610100808354040283529160200191610842565b820191906000526020600020905b81548152906001019060200180831161082557829003601f168201915b5050505050815260200160048201805480602002602001604051908101604052809291908181526020016000905b8282101561091b5760008481526020908190208301805460408051601f60026000196101006001871615020190941693909304928301859004850281018501909152818152928301828280156109075780601f106108dc57610100808354040283529160200191610907565b820191906000526020600020905b8154815290600101906020018083116108ea57829003601f168201915b505050505081526020019060010190610870565b5050505081526020016005820180548060200260200160405190810160405280929190818152602001828054801561097c57602002820191906000526020600020905b81546001600160a01b0316815260019091019060200180831161095e575b50505091835250506006919091015460ff16151560209091015292915050565b6001546001600160a01b031633146109c65760405162461bcd60e51b815260040161054e906120b9565b817ffb9c09af146046471545036a9ad9501d4a212a27e1e3e0135faa553c9da7c64f826040516109f69190611f1e565b60405180910390a25050565b6001546001600160a01b03163314610a2c5760405162461bcd60e51b815260040161054e906120b9565b848667ffffffffffffffff167fc6a8c53e4ea99f3df3fda387089554e433979928188cd5f060beef10f5097a3486868686604051610a6d949392919061202b565b60405180910390a3505050505050565b6001546001600160a01b03163314610aa75760405162461bcd60e51b815260040161054e906120b9565b6001805467ffffffffffffffff600160a01b80830482168401909116027fffffffff0000000000000000ffffffffffffffffffffffffffffffffffffffff909116179055565b6001546001600160a01b03163314610b175760405162461bcd60e51b815260040161054e906120b9565b67ffffffffffffffff8281166000908152600760209081526040918290208451815467ffffffffffffffff19169416939093178355838101516001840155908301518051849392610b6f9260028501929101906114ef565b5060608201518051610b8b9160038401916020909101906114ef565b5060808201518051610ba79160048401916020909101906115b9565b5060a08201518051610bc3916005840191602090910190611612565b5060c091909101516006909101805460ff19169115159190911790555050565b6001546001600160a01b03163314610c0d5760405162461bcd60e51b815260040161054e906120b9565b6000918252600260209081526040909220815181559101516001909101805460ff1916911515919091179055565b610c43611673565b506001600160a01b039081166000908152600660209081526040918290208251608081018452815490941684526001810154918401919091526002810154918301919091526003015460ff161515606082015290565b610ca161169a565b506000908152600260209081526040918290208251808401909352805483526001015460ff1615159082015290565b6001546001600160a01b03163314610cfa5760405162461bcd60e51b815260040161054e906120b9565b846001600160a01b0316867fa5cc3574bc05315d30d8c2a0c15550ca1a1f667fcc96f1612983e18fbdcee85d86868686604051610a6d949392919061202b565b6001546001600160a01b03163314610d645760405162461bcd60e51b815260040161054e906120b9565b60008281526003602090815260409091208251610597928401906114ef565b6000546001600160a01b031690565b600154600160a01b900467ffffffffffffffff1681565b6002602052600090815260409020805460019091015460ff1682565b6000546001600160a01b031681565b6001546001600160a01b03163314610dfe5760405162461bcd60e51b815260040161054e906120b9565b600084815260056020908152604080832081516080810183529788526001600160a01b0396871688840190815260ff96871692890192835267ffffffffffffffff95861660608a0190815282546001808201855593875294909520985160029094029098019283559651919096018054965192516001600160a01b031990971691909516177fffffffffffffffffffffff00ffffffffffffffffffffffffffffffffffffffff16600160a01b9190931602919091177fffffff0000000000000000ffffffffffffffffffffffffffffffffffffffffff16600160a81b9390911692909202919091179055565b6001546001600160a01b031681565b60056020528160005260406000208181548110610f1257fe5b6000918252602090912060029091020180546001909101549092506001600160a01b0381169150600160a01b810460ff1690600160a81b900467ffffffffffffffff1684565b6001546001600160a01b03163314610f825760405162461bcd60e51b815260040161054e906120b9565b67ffffffffffffffff82166000908152600760205260409020600501805482908110610faa57fe5b600091825260209091200180546001600160a01b03191690555050565b6001546001600160a01b031690565b6004602052600090815260409020805460019091015460ff9091169082565b606060056000838152602001908152602001600020805480602002602001604051908101604052809291908181526020016000905b8282101561109b5760008481526020908190206040805160808101825260028602909201805483526001908101546001600160a01b03811684860152600160a01b810460ff1692840192909252600160a81b90910467ffffffffffffffff166060830152908352909201910161102a565b505050509050919050565b6001546001600160a01b031633146110d05760405162461bcd60e51b815260040161054e906120b9565b60405167ffffffffffffffff82169083907f338314ce7f502e7ff312cf1d09a3cd6f5591aa25947b6dbba8da8cf4731e8d0590600090a35050565b6001546001600160a01b031633146111355760405162461bcd60e51b815260040161054e906120b9565b6001600160a01b039190911660009081526004602090815260409091208251815460ff1916901515178155910151600190910155565b60036020908152600091825260409182902080548351601f6002600019610100600186161502019093169290920491820184900484028101840190945280845290918301828280156111fe5780601f106111d3576101008083540402835291602001916111fe565b820191906000526020600020905b8154815290600101906020018083116111e157829003601f168201915b505050505081565b61120e61169a565b506001600160a01b03166000908152600460209081526040918290208251808401909352805460ff1615158352600101549082015290565b60008181526003602090815260409182902080548351601f60026000196101006001861615020190931692909204918201849004840281018401909452808452606093928301828280156112db5780601f106112b0576101008083540402835291602001916112db565b820191906000526020600020905b8154815290600101906020018083116112be57829003601f168201915b50505050509050919050565b6001546001600160a01b031633146113115760405162461bcd60e51b815260040161054e906120b9565b67ffffffffffffffff8216600090815260076020526040902060040180548290811061133957fe5b90600052602060002001600061134f91906116b1565b5050565b60076020908152600091825260409182902080546001808301546002808501805488516101009582161595909502600019011691909104601f810187900487028401870190975286835267ffffffffffffffff9093169590949192918301828280156114005780601f106113d557610100808354040283529160200191611400565b820191906000526020600020905b8154815290600101906020018083116113e357829003601f168201915b5050505060038301805460408051602060026001851615610100026000190190941693909304601f81018490048402820184019092528181529495949350908301828280156114905780601f1061146557610100808354040283529160200191611490565b820191906000526020600020905b81548152906001019060200180831161147357829003601f168201915b5050506006909301549192505060ff1685565b6000546001600160a01b031633146114cd5760405162461bcd60e51b815260040161054e90612082565b600180546001600160a01b0319166001600160a01b0392909216919091179055565b828054600181600116156101000203166002900490600052602060002090601f016020900481019282601f1061153057805160ff191683800117855561155d565b8280016001018555821561155d579182015b8281111561155d578251825591602001919060010190611542565b506115699291506116f8565b5090565b6040518060e00160405280600067ffffffffffffffff16815260200160008019168152602001606081526020016060815260200160608152602001606081526020016000151581525090565b828054828255906000526020600020908101928215611606579160200282015b8281111561160657825180516115f69184916020909101906114ef565b50916020019190600101906115d9565b50611569929150611712565b828054828255906000526020600020908101928215611667579160200282015b8281111561166757825182546001600160a01b0319166001600160a01b03909116178255602090920191600190910190611632565b50611569929150611735565b60408051608081018252600080825260208201819052918101829052606081019190915290565b604080518082019091526000808252602082015290565b50805460018160011615610100020316600290046000825580601f106116d757506116f5565b601f0160209004906000526020600020908101906116f591906116f8565b50565b6105b191905b8082111561156957600081556001016116fe565b6105b191905b8082111561156957600061172c82826116b1565b50600101611718565b6105b191905b808211156115695780546001600160a01b031916815560010161173b565b80356001600160a01b038116811461177057600080fd5b92915050565b600082601f830112611786578081fd5b813561179961179482612291565b61226a565b8181529150602080830190848101818402860182018710156117ba57600080fd5b60005b848110156117e25781356117d0816122b1565b845292820192908201906001016117bd565b505050505092915050565b600082601f8301126117fd578081fd5b813561180b61179482612291565b818152915060208083019084810160005b848110156117e257611833888484358a0101611855565b8452928201929082019060010161181c565b8035801515811461177057600080fd5b600082601f830112611865578081fd5b813567ffffffffffffffff81111561187b578182fd5b61188e601f8201601f191660200161226a565b91508082528360208285010111156118a557600080fd5b8060208401602084013760009082016020015292915050565b803567ffffffffffffffff8116811461177057600080fd5b6000602082840312156118e7578081fd5b6118f18383611759565b9392505050565b60008082840360a081121561190b578182fd5b6119158585611759565b92506080601f1982011215611928578182fd5b50611933608061226a565b6119408560208601611759565b815260408401356020820152606084013560408201526080840135611964816122c6565b6060820152919491935090915050565b6000808284036060811215611987578283fd5b6119918585611759565b92506040601f19820112156119a4578182fd5b506119af604061226a565b60208401356119bd816122c6565b81526040939093013560208401525092909150565b6000602082840312156119e3578081fd5b5035919050565b600080604083850312156119fc578182fd5b823591506020830135611a0e816122b1565b809150509250929050565b60008060008060008060c08789031215611a31578182fd5b86359550611a428860208901611759565b9450604087013567ffffffffffffffff80821115611a5e578384fd5b611a6a8a838b01611855565b95506060890135915080821115611a7f578384fd5b611a8b8a838b01611855565b94506080890135915080821115611aa0578384fd5b611aac8a838b01611855565b935060a0890135915080821115611ac1578283fd5b50611ace89828a01611855565b9150509295509295509295565b60008060008060808587031215611af0578182fd5b84359350611b018660208701611759565b9250604085013560ff81168114611b16578283fd5b9150611b2586606087016118be565b905092959194509250565b60008060408385031215611b42578182fd5b82359150602083013567ffffffffffffffff811115611b5f578182fd5b611b6b85828601611855565b9150509250929050565b6000808284036060811215611b88578283fd5b833592506040601f1982011215611b9d578182fd5b50611ba8604061226a565b602084013581526040840135611bbd816122c6565b6020820152919491935090915050565b60008060408385031215611bdf578182fd5b50508035926020909101359150565b60008060408385031215611c00578182fd5b82359150611c1184602085016118be565b90509250929050565b600060208284031215611c2b578081fd5b813567ffffffffffffffff811681146118f1578182fd5b60008060408385031215611c54578182fd5b611c5e84846118be565b9150611c118460208501611759565b60008060008060008060c08789031215611c85578384fd5b611c8f88886118be565b955060208701359450604087013567ffffffffffffffff80821115611a5e578586fd5b60008060408385031215611cc4578182fd5b611cce84846118be565b9150602083013567ffffffffffffffff811115611b5f578182fd5b60008060408385031215611cfb578182fd5b611d0584846118be565b9150602083013567ffffffffffffffff80821115611d21578283fd5b81850160e08188031215611d33578384fd5b611d3d60e061226a565b9250611d4987826118be565b835260208101356020840152604081013582811115611d66578485fd5b611d7288828401611855565b604085015250606081013582811115611d89578485fd5b611d9588828401611855565b606085015250608081013582811115611dac578485fd5b611db8888284016117ed565b60808501525060a081013582811115611dcf578485fd5b611ddb88828401611776565b60a085015250611dee8760c08301611845565b60c084015250929590945092505050565b60008060408385031215611e11578182fd5b611e1b84846118be565b946020939093013593505050565b6000815180845260208085019450808401835b83811015611e615781516001600160a01b031687529582019590820190600101611e3c565b509495945050505050565b6000815180845260208085018081965082840281019150828601855b85811015611eb2578284038952611ea0848351611ec5565b98850198935090840190600101611e88565b5091979650505050505050565b15159052565b60008151808452815b81811015611eea57602081850181015186830182015201611ece565b81811115611efb5782602083870101525b50601f01601f19169290920160200192915050565b67ffffffffffffffff169052565b6001600160a01b0391909116815260200190565b6001600160a01b03949094168452602084019290925260408301521515606082015260800190565b602080825282518282018190526000919060409081850190868401855b82811015611eb257815180518552868101516001600160a01b0316878601528581015160ff168686015260609081015167ffffffffffffffff169085015260809093019290850190600101611f77565b9115158252602082015260400190565b9384526001600160a01b0392909216602084015260ff16604083015267ffffffffffffffff16606082015260800190565b9182521515602082015260400190565b6000602082526118f16020830184611ec5565b60006080825261203e6080830187611ec5565b82810360208401526120508187611ec5565b83810360408501526120628187611ec5565b91505082810360608401526120778185611ec5565b979650505050505050565b60208082526017908201527f43616c6c6572206973206e6f7420746865206f776e6572000000000000000000604082015260600190565b6020808252601f908201527f43616c6c6572206973206e6f7420746865206c6f676963206164647265737300604082015260600190565b600060208252612104602083018451611f10565b60208301516040830152604083015160e06060840152612128610100840182611ec5565b60608501519150601f19808583030160808601526121468284611ec5565b60808701519350818682030160a08701526121618185611e6c565b92505060a08601519250808583030160c0860152506121808183611e29565b60c0860151925061219460e0860184611ebf565b95945050505050565b81516001600160a01b03168152602080830151908201526040808301519082015260609182015115159181019190915260800190565b8151815260209182015115159181019190915260400190565b8151151581526020918201519181019190915260400190565b67ffffffffffffffff91909116815260200190565b600067ffffffffffffffff8716825285602083015260a0604083015261224360a0830186611ec5565b82810360608401526122558186611ec5565b91505082151560808301529695505050505050565b60405181810167ffffffffffffffff8111828210171561228957600080fd5b604052919050565b600067ffffffffffffffff8211156122a7578081fd5b5060209081020190565b6001600160a01b03811681146116f557600080fd5b80151581146116f557600080fdfea2646970667358221220ca35ae3c00119e7b5b79180ab2eec11d6a1f6d936cc2119cdccde2f9d990ebb464736f6c63430006040033",
  "linkReferences": {},
  "deployedLinkReferences": {}
}